:020000040800F2
:10000000F8440020490100086D290008CD1C0008B3
:10001000152600082D0D00084B3D000800000000CB
:10002000000000000000000000000000D1300008C7
:100030003517000800000000412F00083932000881
:100040006301000863010008630100086301000800
:1000500063010008630100086301000863010008F0
:1000600063010008630100088D180008630100089F
:1000700063010008630100086301000863010008D0
:1000800063010008551400086301000863010008BB
:10009000630100086301000863010008F918000803
:1000A00063010008630100086301000863010008A0
:1000B0001533000835340008A53400086301000832
:1000C0006301000863010008630100086301000880
:1000D000630100080538000869380008593900082C
:1000E0006301000863010008630100086301000860
:1000F0006301000863010008630100086301000850
:10010000630100086301000863010008630100083F
:10011000630100086301000863010008630100082F
:10012000630100086301000863010008630100081F
:10013000DFF810D000F0AAFA00480047BD5A0008C6
:10014000AFF30080F8440020064880470648004787
:10015000FEE7FEE7FEE7FEE7FEE7FEE7FEE7FEE777
:10016000FEE7FEE73D3200083101000840EA0103E6
:100170009B0703D009E008C9121F08C0042AFAD25D
:1001800003E011F8013B00F8013B521EF9D2704721
:10019000D2B201E000F8012B491EFBD270470022C9
:1001A000F6E710B513460A4604461946FFF7F0FF76
:1001B000204610BD30B505462A460B4612F8010B05
:1001C00013F8014B08B1A042F8D01CB1002802D0AE
:1001D0006D1CF1E7284630BD421C10F8011B0029B8
:1001E000FBD1801A704710B5002200E0521C835CDE
:1001F0008C5CA34201D1002BF8D1D8B2E1B2401AF5
:1002000010BD70B5064604F049FC046805460A2294
:100210000021304600F049F82C6070BD30B50B4627
:10022000014600202022012409E021FA02F59D4226
:1002300005D303FA02F5491B04FA02F52844151EFA
:10024000A2F10102F1DC30BD2DE9F05F054600208E
:1002500092469B4688460646814640241BE0284637
:1002600041464746224600F032FA53465A46C01AE3
:10027000914110D311461846224600F019FA2D1A62
:1002800067EB01084F4622460120002100F010FADA
:1002900017EB00094E41201EA4F10104DFDC4846A3
:1002A00031462A464346BDE8F09F2DE9F047914686
:1002B0000F4680460446002614F8015B2DB100F07D
:1002C00029FA0068405DC007F6D12B2D02D02D2DF4
:1002D00018D0641E4A463946204600F01FFA27B15E
:1002E0003968A14201D1C7F8008071054FF00204BE
:1002F0000BD54042002803DD04F0D0FB0460A007CA
:10030000BDE8F08746F48066E4E70028F8DA04F0F8
:10031000C5FB04606FF00040F2E72DE9FE4F804618
:1003200081EA0300C00F0C46009021F0004123F049
:100330000045B8EB0200A94105D24046214690464F
:100340001C460B46024623F00040104347D0270DC1
:10035000C7F30A00C3F30A510290401A01904028E3
:100360006BDAC3F3130040F4801B0098924620B16F
:100370000023D2EB030A63EB0B0B01985946C0F143
:100380004002504600F094F906460D465046594644
:10039000019A00F0ACF910EB08006141002487EAF3
:1003A000115284EAE7731A4340D0009A62B3019A6B
:1003B000012A4FEA075215DC001B61EB02014FF0E6
:1003C000004202EA0752CDE90042001C41F58011CB
:1003D00032462B4600F000FA03B0BDE8F08F4046ED
:1003E0002146F9E7001B61EB0201001C41F5801377
:1003F00000185B412018A2F5001747EB030140EA03
:10040000D570B6196D4111E06D084FEA360645EA20
:10041000C0754FEA0752001B61EB0201001C41F559
:10042000801149084FEA30000019514132462B46ED
:1004300003B0BDE8F04F00F0C0B9009801224000C1
:100440000023D0EB020263EBE073009821464FEAF1
:10045000E074B8EB000061EB0401E9E783F00043CE
:100460005BE781F0004158E72DE9FE4F81EA030484
:1004700004F0004421F0004100944FF0000B23F001
:10048000004350EA01045ED052EA03045BD0C3F398
:100490000A54C1F30A552C44A4F2F3340194A0FB8E
:1004A0000254C1F3130141F48011C3F3130343F465
:1004B000801301FB024400FB034E840A970A44EABE
:1004C000815447EA8357A4FB076802958D0A05FB10
:1004D00007854FEA932C04FB0C542705029D4FEA35
:1004E000065847EA1637B5EB08056EEB070C870E82
:1004F000920E47EA811742EA8312A7FB0201B6EB8C
:100500000B0164EB00042B0D43EA0C335E1844EB43
:100510001C50DA465146E7FB0201C5F313044FEACB
:100520000B3343EA14534FEA0432019C43EA0603B7
:10053000A4F10C040294009CCDE900B400F04CF945
:1005400003B0BDE8F08F00200146F9E72DE9F04D3A
:1005500081EA030404F0004B21F0004514464FF0FB
:10056000000A23F0004150EA050220D054EA0102BB
:100570001DD0C5F30A570246C5F31303C1F3130098
:10058000C1F30A5640F4801543F48013A7EB060824
:10059000101BD64608F2FD3873EB050002D308F1B4
:1005A000010801E092185B41B8F1000F03DA002066
:1005B0000146BDE8F08D00204FF4801106468446C8
:1005C0000EE0171B73EB050705D3121B63EB050346
:1005D00006434CEA010C49084FEA300092185B418F
:1005E00050EA0107EDD152EA030012D082EA04007A
:1005F00083EA0501084305D0101BAB4106D2012256
:10060000002306E000224FF0004302E06FF00102F9
:1006100053101AEB06004CEB085110EB0A0041EBAB
:100620000B01BDE8F04D00F0C8B8C1F30A52C1F3A8
:10063000130140F2FF3341F480119A4202DA0020A4
:100640000146704740F233439A42A2F2334202DC41
:10065000524200F03CB800F02BB8000030B5041E48
:1006600071F1000404DB4FF00044404264EB0101EF
:10067000141E73F1000405DB1C464FF00043524288
:1006800063EB0403994208BF904230BD064C074D0E
:1006900006E0E06840F0010394E807009847103452
:1006A000AC42F6D3FFF748FD88A60008A8A60008CC
:1006B000202A04DB203A00FA02F100207047914022
:1006C000C2F1200320FA03F3194390407047202A17
:1006D00004DB203A21FA02F00021704721FA02F3EC
:1006E000D040C2F120029140084319467047202AA9
:1006F00006DBCB17203A41FA02F043EAE07306E04A
:1007000041FA02F3D040C2F1200291400843194659
:100710007047000000487047DCA100082DE9F05F39
:1007200082460078002715468B460AF10104B94637
:10073000302801D09DB113E014F8010B012778286F
:1007400003D0582801D045B10AE00DB1102D07D1D2
:100750000027102514F8010B02E0082500E00A2507
:100760000026B0460EE005FB080005FB06F1012758
:1007700001EB10461FFA80F8B6F5803F00D3B9466A
:1007800014F8010B294600F075F80028EBDABBF1EC
:10079000000F05D00FB1641E00E05446CBF80040B6
:1007A000B9F1000F06D004F079F902210160C81EEA
:1007B000BDE8F09F48EA0640FAE710B5141E73F151
:1007C000000408DA401C41F1000192185B411A4311
:1007D00001D120F0010010BD2DE9F04D92469B465D
:1007E00011B1B1FA81F202E0B0FA80F22032904603
:1007F000FFF75EFF04460F4640EA0A0041EA0B019C
:1008000053465A46084313D0114653EA010019D003
:10081000C8F140025046FFF75AFF05460E465046C3
:1008200059464246FFF744FF084305D0012004E043
:1008300020463946BDE8F08D0020054346EAE076C3
:100840002C4337430A986305E40AA0EB0800002212
:10085000FD0A44EA47540A3002D500200146E9E780
:10086000010510196941DDE9084500196941BDE834
:10087000F04DA2E73A2800D2303820F02002412A79
:1008800001D3A2F13700884201D34FF0FF30704707
:1008900021B1826842F00102826003E0826822F0A6
:1008A00001028260704721B1826842F480728260E6
:1008B00003E0826822F48072826070470146002063
:1008C0008A6802F004020AB1012000E000207047AB
:1008D000014600208A6802F008020AB1012000E007
:1008E0000020704730B502460020002350680F4CAE
:1008F00020400D790C6844EA05242043506090683C
:100900000B4C2040D1E902542C434D7944EA450474
:1009100020439060D06A20F470000C7C641EE4B226
:10092000234340EA0350D06230BD0000FFFEF0FFD9
:10093000FDF7F1FFF0B504460D4600200021092D1A
:1009400011DDE068A5F10A0606EB4607072606FA60
:1009500007F18843A5F10A0606EB460603FA06F1FD
:100960000843E0600CE0206905EB4507072606FA1E
:1009700007F1884305EB450603FA06F108432061B9
:10098000072A0FDA606B561E06EB86071F2606FA4B
:1009900007F18843561E06EB860605FA06F1084362
:1009A000606322E00D2A0FDA206BD61F06EB860764
:1009B0001F2606FA07F18843D61F06EB860605FABE
:1009C00006F10843206310E0E06AA2F10D0606EB91
:1009D00086071F2606FA07F18843A2F10D0606EBEB
:1009E000860605FA06F10843E062F0BD816841F031
:1009F00008018160704721B1826842F4A0028260E0
:100A000003E0826822F4A00282607047816841F0AE
:100A1000040181607047000008B5002000900121AA
:100A2000042002F0CBFA4320ADF8000000208DF83E
:100A300003006946014801F089F808BD000801403B
:100A400010B5FFF7E9FF00F001F810BD00B591B057
:100A50000121084602F082FA0121480202F0AEFAB2
:100A60003A4800F027FD3A4806903A48079000209F
:100A700008900320099000200A9080200B904000ED
:100A80000C9080000D9020200E9000020F9000200E
:100A9000109006A92D4800F0D6FD01212B4800F04A
:100AA000FDFC0020019001208DF808008DF8090060
:100AB0004FF4602003900020049003208DF8140070
:100AC00001A923484C38FFF70DFF4FF4404002F0D6
:100AD00039FA0523022201211D484C38FFF72AFF6D
:100AE0000523012200211A484C38FFF723FF052374
:100AF0000322062116484C38FFF71CFF0121144839
:100B00004C38FFF7D0FE012111484C38FFF7C0FEEA
:100B10000F484C38FFF76AFF00BF0D484C38FFF70D
:100B2000D7FE0028F9D10A484C38FFF76FFF00BF05
:100B300007484C38FFF7C2FE0028F9D101210448CC
:100B40004C38FFF758FF11B000BD0000080002400C
:100B50004C240140C400002010B5A2B080212D48D3
:100B6000FFF71DFB2CA22EA12A4803F071FF294894
:100B7000FFF732FB3449086080213448FFF70FFB50
:100B800033A325A235A1314803F062FF2F48FFF7B8
:100B900023FB34490860802102A8FFF700FB2CA04A
:100BA0001DA31DA230A1009002A803F051FF02A8CE
:100BB000FFF712FB0446202034A33D4A2146009053
:100BC00002A805F077FC3A48FFF706FB39490860B0
:100BD00080213948FFF7E3FA1DA238A1364803F017
:100BE00037FF40F25B703F490860084632490268AF
:100BF0003DA003F01DFF074940A003F019FF134972
:100C000042A003F015FF2A4944A003F011FF22B0CF
:100C100010BD0000202B0020414243440000000092
:100C200025737C7365637572656D6F64653D332CE8
:100C30007369676E6D6574686F643D686D61637339
:100C40006861317C0000000094000020A02B00208F
:100C5000613167754B7932477678770025732625A1
:100C60007300000098000020636C69656E7449642D
:100C700025736465766963654E616D652573707271
:100C80006F647563744B6579257300003332656357
:100C900037326562383733343962613561396436E9
:100CA0006430306131383334303334370000000081
:100CB000202C00209C000020A02C002025732E69F1
:100CC0006F742D61732D6D7174742E636E2D736846
:100CD000616E676861692E616C6979756E63732EE8
:100CE000636F6D00A0000020B7FE20CEF120C6F794
:100CF000A3BA25733A25640D0A000000BFCDBBA737
:100D0000B6CB4944A3BA25730D0A0000D3C320BB58
:100D1000A720C3FBA3BA25730D0A0000C3DC202063
:100D20002020C2EBA3BA25730D0A00007047000013
:100D300070B505460C462246294615480068801CB9
:100D4000FFF714FA2046E11704EB1161090A104A73
:100D500012681170E11704EB11610912A4EB012173
:100D60000B4A12685170002109480268A01C1154F6
:100D70000748006800F59670054908600846006855
:100D800004490968884202D103480149086070BDDE
:100D90008800002090000020C021002010B5984855
:100DA000007801286BD19748006897490968884204
:100DB0003AD096480078002836D19248006880786A
:100DC00010280CD08F4800688078822803D1904882
:100DD0000078012803D08F480078012824D1894861
:100DE00000688078C02806D18648006881788AA08B
:100DF00003F01EFE05E08348006881788BA003F0B5
:100E000017FE8048006805F0A3FA7E48006800F5E8
:100E100096707C49086008460068884909688842DD
:100E200002D1874877490860864800688649096882
:100E3000884271D085A003F0FBFD8248006880786D
:100E4000202841D17F4800684079062834D2DFE865
:100E500000F0030E151E252C7FA003F0E9FD0120F4
:100E60006B490870002181A001F088FB2BE08CA069
:100E700003F0DEFD00206249087024E000E08FE00E
:100E800092A003F0D5FD00205D4908701BE09BA0F7
:100E900003F0CEFD00205A49087014E0A1A003F031
:100EA000C7FD0020564908700DE0A9A003F0C0FD61
:100EB00000205349087006E0ADA003F0B9FD002002
:100EC0004F49087000BF4EE05E4800688078902867
:100ED00023D15C480068807910B1012814D100E06A
:100EE00000BFACA003F0A4FD01F084FD012049493E
:100EF000087002F063FA0121880702F0E4FA04F0B6
:100F00005DFB04F04BFD06E0A5A003F091FD002081
:100F10003B49087000BF26E034E04A48006880780A
:100F2000D02814D1A4A003F083FDA748007801289D
:100F300003D10020A449087015E0A34800780128D7
:100F400011DD0020A049087002F038FA0BE03D489E
:100F500000688078302806D19CA003F069FD3948EC
:100F6000006801F003FA3748006800F596703549CB
:100F70000860084600689A490968884202D1994881
:100F8000304908609848006898490968884201D04B
:100F900004F0F2FD1F48007888B300F073FB2EE0E8
:100FA00093A003F045FD4FF4E13003F001F8002178
:100FB000944802F088FA00214FF0804002F083FA52
:100FC0000020914908604FF480619048FFF7E7F8EE
:100FD00003F04EF898B98EA003F02AFD4FF4E130EB
:100FE00002F07EFF01200649087000208649086053
:100FF0004FF480618548FFF7D2F801F05DF810BD2D
:10100000B1000020800000207C0000206C00002047
:10101000B2000020B3000020B7A2CBCD70696E678C
:10102000CAFDBEDD3A307825780D0A00B7A2CBCDD7
:10103000CAFDBEDD3A307825780D0A008400002014
:10104000601800207400002070000020BDD3CAD5B5
:10105000B5BDCAFDBEDD3A00434F4E4E454354B1C7
:10106000A8CEC4B3C9B9A60D0A0000002F737973C6
:101070002F613167754B7932477678772F4142433C
:10108000442F7468696E672F736572766963652F84
:1010900070726F70657274792F7365740000000050
:1010A000C1ACBDD3D2D1BEDCBEF8A3ACB2BBD6A717
:1010B000B3D6B5C4D0ADD2E9B0E6B1BEA3ACD7BC0F
:1010C000B1B8D6D8C6F40D0A00000000C1ACBDD33B
:1010D000D2D1BEDCBEF8A3ACB2BBBACFB8F1B5C4B6
:1010E000BFCDBBA7B6CBB1EACAB6B7FBA3ACD7BCE2
:1010F000B1B8D6D8C6F40D0A00000000C1ACBDD30B
:10110000D2D1BEDCBEF8A3ACB7FECEF1B6CBB2BB3B
:10111000BFC9D3C3A3ACD7BCB1B8D6D8C6F40D0AE7
:1011200000000000C1ACBDD3D2D1BEDCBEF8A3AC80
:10113000CEDED0A7B5C4D3C3BBA7C3FBBBF2C3DC11
:10114000C2EBA3ACD7BCB1B8D6D8C6F40D0A000028
:10115000C1ACBDD3D2D1BEDCBEF8A3ACCEB4CADA2A
:10116000C8A8A3ACD7BCB1B8D6D8C6F40D0A000045
:10117000C1ACBDD3D2D1BEDCBEF8A3ACCEB4D6AA2E
:10118000D7B4CCACA3ACD7BCB1B8D6D8C6F40D0A92
:1011900000000000B6A9D4C4B3C9B9A60D0A000066
:1011A000B6A9D4C4CAA7B0DCA3ACD7BCB1B8D6D852
:1011B000C6F40D0A0000000050494E47B1A8CEC445
:1011C000BBD8B8B40D0A0000B0000020B7FECEF1C5
:1011D000C6F7B5C8BCB630CDC6CBCD0D0A000000F1
:1011E00078000020000F00208C00002088000020E4
:1011F000D7BCB1B8C1ACBDD3B7FECEF1C6F70D0AAE
:1012000000000000000400406800002000070020EB
:10121000C1ACBDD3B7FECEF1C6F7B3C9B9A60D0AAE
:101220000000000010B501F0EBFC1B4800781B49E2
:101230000978884205D0184800781849087001F0EC
:10124000D9FB1748007828B116A23021782001F088
:1012500057FE04E014A23021782001F051FE0E4820
:101260000078052815D2DFE800F003080B0E110006
:1012700004F054FC04F092FE0BE004F031FA08E0B4
:1012800004F0DAFF05E004F0EFFE02E005F002F8FA
:1012900000BF00BF10BD0000DD000020DE00002008
:1012A00055000020410000005700000010B5002448
:1012B0001548006820F00F001349086008460068D0
:1012C00040F00800086004E0601CC4B2012000F097
:1012D000BBFA0E48006808B1642CF5DB642C01DB16
:1012E000012010BD002404E0601CC4B2012000F005
:1012F000ABFA0648006808B9642CF5DB642C01DB06
:101300000120EEE70020ECE7040C0140208121429F
:1013100008B50121082001F051FE4FF48070ADF8AE
:10132000000010208DF8030003208DF802006946AC
:10133000064800F00BFC4FF48071044800F0A5FC57
:1013400000F068F8FFF7B2FF08BD0000000C014094
:1013500010B5002404E0601CC4B2012000F074FA4F
:101360000D48006808B1642CF5DB002404E0601C23
:10137000C4B2012000F068FA0748006808B9642C7C
:10138000F5DB282000F060FA0348006808B101206E
:1013900010BD0020FCE700002081214270B5002430
:1013A000002506E06006040EFFF7D2FF0443681C28
:1013B000C5B2082DF6DB204670BD7CB505460E464D
:1013C00000F028F8FFF772FFF8B9002405E0FFF7F6
:1013D000E5FF0DF80400601CC4B2052CF7DB9DF896
:1013E00000009DF8011008449DF8021008449DF883
:1013F000031008449DF80410884208D19DF80000AD
:1014000028709DF80200307001E001207CBD0020B2
:10141000FCE7000010B50C48006820F00F000A49F6
:1014200008600846006840F0030008600020074993
:101430000860142000F08CF901200549C1F8A001D2
:101440001E2000F001FA10BD040C0140A0812142D1
:101450000080214210B54FF0007000F0D5F850B177
:101460004FF0007000F00CF80021034800F016F86F
:1014700000200249087010BD800002406C0000206E
:1014800000F0805111B10349086001E00249486051
:1014900070470000040402400000024021B10268CD
:1014A00042F00102026004E002684FF6FE731A4047
:1014B0000260704701684FF6FE7211400160002122
:1014C000016041608160C1604B49884208D14A494E
:1014D0000839496841F00F01474A083A51608AE0EB
:1014E00045491431884208D143490839496841F0D7
:1014F000F001414A083A51607DE03F492831884275
:1015000008D13D490839496841F470613A4A083ABE
:10151000516070E038493C31884208D13649083979
:10152000496841F47041344A083A516063E03249F5
:101530005031884208D130490839496841F4702156
:101540002D4A083A516056E02B496431884208D14F
:1015500029490839496841F47001274A083A51601D
:1015600049E025497831884208D12349083949683A
:1015700041F07061204A083A51603CE01F498842BE
:1015800006D1011F096841F00F01021F116032E00E
:101590001A491431884208D11849091F096841F0D5
:1015A000F001164A121F116025E0144928318842C3
:1015B00008D11249091F096841F470610F4A121FCE
:1015C000116018E00D493C31884208D10B49091FD0
:1015D000096841F47041094A121F11600BE0074984
:1015E0005031884207D10549091F096841F470212B
:1015F000024A121F116070470800024008040240AE
:101600000146486880B2704701460020002201F080
:10161000805313B1054B1A6801E0054B1A6802EAC2
:1016200001030BB1012000E00020704700040240DC
:10163000000002401AB103680B43036002E0036834
:101640008B430360704710B50022026847F6F073C1
:101650009A430C6A8B6823430C6923434C692343E8
:101660008C692343CC6923434C6A23438C6A23430C
:101670001A430260CB6843600B6883604B68C360A9
:1016800010BD000010B5ADF5027D15480068154984
:101690000968401A062820D31148006811490860DB
:1016A0001148007811490978114A1278114B1B78BA
:1016B000CDE90032CDE902100F4803780F480278D7
:1016C0000F4905A803F0C4F905A8FEF785FD0446F7
:1016D000224605A90BA000F0DBFE0DF5027D10BD32
:1016E00000000020040000205000002045000020E1
:1016F00046000020440000204F0000204E00002043
:1017000098A500082F7379732F613167754B793273
:10171000477678772F414243442F7468696E672F6C
:101720006576656E742F70726F70657274792F7044
:101730006F7374007047022000BF411EC9B2081EBB
:10174000FBD1704710B56FF0040001F061FD10BDD2
:1017500010B50146B1F5E16F22D201EBC1034FF4A0
:101760007A7463434FF0E02463610023A36123464E
:101770001B6943F00103236100BF4FF0E0231869A8
:1017800000F001031BB100F48033002BF5D04FF0C3
:10179000E0231B6923F001034FF0E02423614FE0B5
:1017A00000221FE0274B4FF0E02463610023A36178
:1017B00023461B6943F00103236100BF4FF0E02380
:1017C000186900F001031BB100F48033002BF5D041
:1017D0004FF0E0231B6923F001034FF0E024236165
:1017E000531CDAB24FF4E163B1FBF3F39342D9D85F
:1017F0004FF4E163B1FBF3F403FB141303EBC303F6
:101800004FF47A7463434FF0E02463610023A361D3
:1018100023461B6943F00103236100BF4FF0E0231F
:10182000186900F001031BB100F48033002BF5D0E0
:101830004FF0E0231B6923F001034FF0E024236104
:1018400010BD00004031F700014601EBC1024FF02E
:10185000E0235A6100229A611A46126942F001029D
:101860001A6100BF4FF0E022106900F001021AB1C6
:1018700000F48032002AF5D04FF0E022126922F005
:1018800001024FF0E0231A617047000010B50A20F2
:10189000FFF75EFF1021154800F0E3F908BB14487C
:1018A000007828B10020124908701249087018E029
:1018B0001048007818B901200D49087011E00D4852
:1018C0000078012806D10220094908700020094942
:1018D000087006E007480078022802D10320044976
:1018E0000870102000F0C2F810BD0000000C01408C
:1018F000DD000020E000002010B50A20FFF728FFDF
:101900002021534800F0ADF900283ED1514800781D
:1019100078B951480078401C4F4908700846007853
:10192000032190FBF1F201FB12004B49087004F017
:1019300035FB4848007802280FD147480078401C02
:101940004549087008460078032190FBF1F201FB3D
:1019500012004149087004F021FB3E48007801283C
:1019600007D13E48007808B9012000E000203B493B
:10197000087038480078032807D13848007808B93B
:10198000012000E00020354908704021304800F077
:1019900068F918BB2F480078022819D12E48007822
:1019A000012809D12E480078632811DA2C480078E4
:1019B000401C2B4908700BE02748007840B92948A3
:1019C0000078632804DA27480078401C254908700D
:1019D00020480078032801D100F070FA80211C48CB
:1019E00000F03FF940BB1B480078022819D11A4883
:1019F0000078012809D11A480078012811DD18481B
:101A00000078401E164908700BE01348007840B972
:101A100014480078012804DD12480078401E11495E
:101A200008700C48007838B90F48007808B90120D0
:101A300000E000200C49087003F08EFC202000F02C
:101A400015F8402000F012F8802000F00FF810BDCB
:101A5000000C0140DD000020E0000020DF0000203D
:101A6000510000205200002055000020014908606C
:101A70007047000014040140002123498279002AA4
:101A80003AD00A46126803689A430B461A600A1D48
:101A9000126803689A430B1D1A60027911440A68A0
:101AA00003681A430A60184A0832126803689A43A6
:101AB000154B08331A601A1D126803689A43124BBB
:101AC0000C331A604279102A0ED11A1F126803686B
:101AD0001A430D4B08331A601A1D126803681A4323
:101AE000094B0C331A600DE00749427911440A682A
:101AF00003681A430A6005E0027911440A68036822
:101B00009A430A60704700000004014030B500228B
:101B10008B071C0F0F2303FA04F20B4B8C1053F8A6
:101B200024309343084C8D1044F8253023468C1004
:101B300053F824308C07240F00FA04F42343024C9A
:101B40008D1044F8253030BD080001402DE9F041EA
:101B5000024600250026002000230024002791F8DB
:101B600003C00CF00F0591F803C00CF0100CBCF191
:101B7000000F03D091F802C04CEA050591F800C0AF
:101B8000BCF1000F31D0146800202BE04FF0010CA5
:101B90000CFA00F3B1F800C00CEA03069E4220D113
:101BA00083004FF00F0C0CFA03F7BC4305FA03FC5B
:101BB0004CEA040491F803C0BCF1280F06D14FF0A1
:101BC000010C0CFA00FCC2F814C00AE091F803C042
:101BD000BCF1480F05D14FF0010C0CFA00FCC2F823
:101BE00010C0401C0828D1D31460B1F800C0BCF16B
:101BF000FF0F34DD546800202EE000F1080C4FF098
:101C0000010808FA0CF3B1F800C00CEA03069E4282
:101C100021D183004FF00F0C0CFA03F7BC4305FAF7
:101C200003FC4CEA040491F803C0BCF1280F05D171
:101C300000F1080C08FA0CF8C2F8148091F803C0FF
:101C4000BCF1480F07D100F1080C4FF0010808FA69
:101C50000CF8C2F81080401C0828CED35460BDE8B0
:101C6000F0810246002093680B400BB1012000E098
:101C70000020704702460020D3680B400BB10120C2
:101C800000E00020704741617047016170470AB170
:101C9000016100E0416170472DE9F04105460C46C5
:101CA0000026002708E0084830F815000644052003
:101CB000FFF74EFD781CC7B2A742F4DBB6FBF4F089
:101CC00080B2BDE8F0810000C40000207047000031
:101CD00010B54FF480510948FFF7D7FF4FF400517A
:101CE0000648FFF7D2FF4FF480510448FFF7CBFFBF
:101CF0004FF400510148FFF7C6FF10BD000C014032
:101D000010B54FF400510748FFF7BFFF4FF4805163
:101D10000448FFF7B8FF4FF480510248FFF7B5FFC2
:101D200010BD0000000C014010B54FF400510448F4
:101D3000FFF7ABFF4FF400510148FFF7A4FF10BDC0
:101D4000000C01400EB50121084601F037F90421CD
:101D50000120FFF7DBFE05210120FFF7D7FE06215A
:101D60000120FFF7D3FE07210120FFF7CFFE10204F
:101D7000009000208DF804000C208DF80500012053
:101D80008DF806006846FFF777FE202000900020BF
:101D90008DF804000C208DF8050001208DF8060058
:101DA0006846FFF769FE4020009000208DF804008F
:101DB0000C208DF8050001208DF806006846FFF71D
:101DC0005BFE8020009000208DF804000C208DF830
:101DD000050001208DF806006846FFF74DFE17202C
:101DE0008DF8080003208DF809008DF80A00012005
:101DF0008DF80B0002A800F0BBFD0A208DF808004A
:101E000003208DF809008DF80A0001208DF80B00E1
:101E100002A800F0ADFD0EBD08B50121082001F0BB
:101E2000CDF8F020ADF8000048208DF80300694699
:101E30000148FFF78BFE08BD000C014008B50121E9
:101E4000042001F0BBF84FF4CD50ADF800000320A2
:101E50008DF8020014208DF8030069461248FFF740
:101E600075FE4FF40070ADF8000069460F48FFF7AB
:101E70006DFE2020ADF8000004208DF80300022044
:101E80008DF8020069460848FFF760FE0120084906
:101E900008600849C1F8A001054910310860091D12
:101EA00008600549086008BD00080140000C0140B9
:101EB0009C01214200002142A481214210B56848C2
:101EC0000078B0B900240CE0664810F82410664889
:101ED00004F054F8634810F82410644804F04EF8F5
:101EE000641C052CF0DB5F48C068401C5D49C8607D
:101EF000B4E05F480078B0B900240CE0594810F80D
:101F00002410594804F03AF8564810F8241057485D
:101F100004F034F8641C052CF0DB5248C068401C07
:101F20005049C8609AE053480078B0B900240CE0EA
:101F30004C4810F824104C4804F020F8494810F898
:101F400024104A4804F01AF8641C052CF0DB4548BC
:101F5000C068401C4349C86080E047480078B0B979
:101F600000240CE03F4810F824103F4804F006F825
:101F70003C4810F824103D4804F000F8641C052C7F
:101F8000F0DB3848C068401C3649C86066E03B4812
:101F90000078B0B900240CE0324810F82410324820
:101FA00003F0ECFF2F4810F82410304803F0E6FF50
:101FB000641C052CF0DB2B48C068401C2949C86014
:101FC0004CE02F480078B0B900240CE0254810F808
:101FD0002410254803F0D2FF224810F8241023488B
:101FE00003F0CCFF641C052CF0DB1E48C068401CCD
:101FF0001C49C86032E023480078B0B900240CE0E6
:10200000184810F82410184803F0B8FF154810F8C5
:102010002410164803F0B2FF641C052CF0DB1148B5
:10202000C068401C0F49C86018E017480078A8B97C
:1020300000240CE00B4810F824100B4803F09EFF1E
:10204000084810F82410094803F098FF641C052C78
:10205000F0DB0448C068401C0249C86010BD0000A5
:10206000D500002008000020004800400038014052
:10207000D6000020D7000020D8000020D900002082
:10208000DA000020DB000020DC00002008B5012180
:10209000082000F093FF4CF20300ADF8000003208D
:1020A0008DF8020010208DF8030069460148FFF703
:1020B0004DFD08BD000C014010B5144814490860DE
:1020C000084600681349086013481449086014481A
:1020D0001449086008460068134908601348144909
:1020E00008601448144908600846006813490860ED
:1020F00013481449086000F02DF8002012490870B8
:10210000124908701249087010BD0000000F00202D
:102110007000002074000020341700207800002098
:10212000601800207C000020800000209420002007
:1021300084000020C0210020880000208C000020A6
:10214000F429002090000020B3000020B2000020FD
:10215000B000002070B501207A4908600A207A4951
:1021600008607A480068001D794909680844801CA5
:102170007849096808447849086073480068096824
:10218000441810207549087000BF2046E11704EB81
:102190005161C911A4EBC115E11704EB5161CC11D8
:1021A000002C01DD45F080056C48664A12688554B4
:1021B00064480068401C63490860002CE5DC00218D
:1021C000664A60480068115404215E480068401C5B
:1021D00011544D215B480068801C1154512159480D
:1021E0000068C01C1154542156480068001D115449
:1021F00054480068401D1154042152480068801D55
:102200001154C2214F480068C01D115400214D488F
:1022100000680830115464214A480068093011549C
:102220004A490868C11700EB1161C1F307224B4B03
:10223000444909680A315A5444490868C11700EBF7
:1022400011610912A0EB0121CAB23E4909680B31A4
:102250005A541A463B4909680C3150183B490A68E0
:102260003F49FDF783FF3A490868C11700EB116148
:10227000C1F30722334909680C31344B1B681944F8
:10228000364B5A5432490868C11700EB11610912E4
:10229000A0EB0121CAB22B4909680D312B4B1B68F9
:1022A00019442E4B5A54274909680E31274A12689F
:1022B00011441A46881826490A682A49FDF756FF2C
:1022C00024490868C11700EB1161C1F307221D49B9
:1022D00009680E311D4B1B6819441D4B1B681944BE
:1022E0001E4B5A541B490868C11700EB11610912B3
:1022F000A0EB0121CAB2134909680F31134B1B68C7
:102300001944134B1B681944144B5A540D4909685E
:1023100010310E4A126811440D4A126811441A46CF
:1023200088180C490A681049FDF720FF0548006825
:10233000054A12681044084A12688118074801F0DB
:102340002FFA70BDA4000020A800002094000020F7
:10235000980000209C000020AC000020202D0020D0
:10236000202B0020A02B0020202C00202DE9F04F56
:10237000D1B0804698F8011098F8000001EB0020D9
:10238000509008F102070020814605460646834624
:1023900001244FF0010A00BF0BF1010B00BF281907
:1023A00017F8009009F07F0000FB0A664FEACA1A8E
:1023B000641C09F080000028F1D13019054431195E
:1023C0005098401A50900124A246002650980028A8
:1023D000E2D1594620A002F02BFB0020054606461C
:1023E00000BF00BF4C9030E000BF281917F80090E4
:1023F00009F07F0000FB0A664FEACA1A641C09F064
:1024000080000028F1D1601C2844395C6019385CD8
:1024100001EB0020801C4F904F98301A4E902919E4
:102420004F9808444D904D98391801A84E9AFDF7E1
:102430009DFE01A84E99FEF77BFC3019054401244E
:10244000A24600264C98401C4C904C985845CBDB3B
:1024500051B0BDE8F08F0000B1BEB4CEBDD3CAD537
:10246000C1CB2564B8F6CDC6CBCDCAFDBEDD0D0A05
:102470000000000010B5C02004490870002048701A
:102480000221024801F08CF910BD0000202D00202F
:102490002DE9F04705468846164601203349086075
:1024A0002846FDF799FE801C3149086031480660D6
:1024B000084600682F490968441830202E490870E2
:1024C00000BF2046E11704EB5161C911A4EBC1170D
:1024D000E11704EB5161CC11002C01DD47F08007BE
:1024E0002548224A1268875420480068401C1F492A
:1024F0000860002CE5DC2846FDF76EFEC0F30721DE
:102500001D4A1A48006811542846FDF765FEC1B2FD
:10251000194A16480068401C11542846FDF75CFE15
:102520008146154A11490968891C50184A462946AE
:10253000FDF71CFE2846FDF74FFE0C490968891C73
:1025400008440D4900EB0109324641464846FDF773
:102550000DFE06480068064A12681044054A1268D3
:102560008118054801F01CF9BDE8F087A40000209F
:10257000A8000020AC000020202D002070B50446EB
:102580000D4602201F4908601F4908602046FDF7DC
:1025900023FEC01C1D49086082201D4908701A488E
:1025A00000781A4909780844194948700020887051
:1025B0000120C8702046FDF70FFE000A144908717B
:1025C0002046FDF709FE124948712046FDF704FE3A
:1025D0000646324621460E48801DFDF7C7FD2046BF
:1025E000FDF7FAFD801D0A490D5406480068064AA9
:1025F00012681044054A12688118054801F0D0F8A5
:1026000070BD0000A4000020A8000020AC00002045
:10261000202D0020704700002DE9F04105460E46B0
:1026200017460024002E77D10120B8490870C6E073
:10263000B7480068B749096888423AD0B648007878
:10264000002836D1B2480068807810280CD0B048F5
:1026500000688078822803D1B0480078012803D030
:10266000AF480078012824D1A94800688078C028A4
:1026700006D1A74800688178AAA002F0D9F905E040
:10268000A34800688178ACA002F0D2F9A0480068A5
:1026900003F05EFE9E48006800F596709C49086055
:1026A00008460068A8490968884202D1A7489849A5
:1026B0000860082C7AD2DFE804F0041220303F4E84
:1026C0005C6A0120A24908600020A249C1F8B80153
:1026D0009F493C3108609F49C1F8840166E00120B0
:1026E0009B4908609B49C1F8B801002098493C31DA
:1026F00008609849C1F8840158E0002094490860B6
:1027000001209449C1F8B801002091493C3108608A
:102710009049C1F8840149E057E000208C490860E5
:1027200001208C49C1F8B80189493C31086000207A
:102730008849C1F8840139E000208549086085494D
:10274000C1F8B801012082493C310860002081496C
:10275000C1F884012AE000207D4908607D49C1F864
:10276000B80101207A493C3108607A49C1F88401F6
:102770001CE00020764908607649C1F8B801744928
:102780003C31086001207349C1F884010EE001204A
:102790006F49086000206F49C1F8B8016C493C31AD
:1027A000086001206B49C1F8840100BF00BF072CFD
:1027B00001D1002400E0641C384603F0D3F8281E41
:1027C000A5F101057FF434AF8DE000204F4908707A
:1027D00084E0082C79D2DFE804F00413212F3E4D69
:1027E0005C6A01205A49086000205A49C1F8B801C2
:1027F00057493C31086001205649C1F8840164E022
:102800000020534908605349C1F8B80150493C3190
:10281000086001204F49C1F8840156E000204C496E
:1028200008604C49C1F8B801012049493C310860B1
:102830004849C1F8840148E00020454908604549FD
:10284000C1F8B801012042493C31086000204149EB
:10285000C1F8840139E000203D49086001203D496C
:10286000C1F8B8013A493C31086000203949C1F843
:1028700084012AE000203649086001203549C1F86A
:10288000B801002032493C3108603249C1F8840166
:102890001BE001202E4908602E49C1F8B801002034
:1028A0002B493C3108602B49C1F884010DE001201F
:1028B0002749086000202749C1F8B80124493C3164
:1028C00008602449C1F8840100BF00BF072C01D172
:1028D000002400E0641C384603F044F8281EA5F1EB
:1028E00001057FF476AF0020194908601949C1F845
:1028F000B80117493C3108601649C1F88401034802
:10290000017815A002F094F8BDE8F081E300002002
:10291000800000207C0000206C000020B20000201D
:10292000B3000020B7A2CBCD70696E67CAFDBEDDD3
:102930003A307825780D0A00B7A2CBCDCAFDBEDDAE
:102940003A307825780D0A008400002060180020B5
:102950008081214200802142254D6F746F72527533
:102960006E5F666C61672025640D0A007047000089
:1029700070B5002100230F22C47804B3154C2468DD
:1029800004F4E064C4F5E064210AC1F10403CA4020
:10299000447804FA03F184781440214309010E4C71
:1029A0000678A155047804F01F050124AC40057891
:1029B0006D11AD0005F1E025C5F8004109E004788E
:1029C00004F01F050124AC40044D0678761145F84B
:1029D000264070BD0CED00E000E400E080E100E086
:1029E00002490143024A1160704700000000FA05E5
:1029F0000CED00E070B500240CE0002506E000209E
:102A0000074901EBC5010855681CC5B2802DF6DBEE
:102A1000601CC4B2082CF0DB00F0F2F870BD0000BE
:102A20007E2E002070B50B46CE1701EB5676C6F30E
:102A3000C702CE1701EB5676F610A1EBC606F4B22C
:102A40000123A340DDB20E4B03EBC0039B5CDB43D1
:102A50000B4E06EBC006B354094B03EBC0039B5C63
:102A60002B43074E06EBC006B354054B03EBC003E4
:102A70009B5CDB43024E06EBC006B35470BD000006
:102A80007E2E002070B50A46CE1701EB5676C6F3AF
:102A9000C703CE1701EB5676F610A1EBC606F4B2CB
:102AA0000122A240D5B2054A02EBC002D25C2A4301
:102AB000024E06EBC006F25470BD00007E2E0020D0
:102AC00008B50121082000F079FA4FF44050ADF824
:102AD000000010208DF8030003208DF802006946E5
:102AE0004048FFF733F841F202013E48FFF7CDF8C6
:102AF0006420FEF72DFEC820FEF72AFE0021AE203E
:102B000000F07DF90021084600F079F9002110203D
:102B100000F075F90021402000F071F900218120BA
:102B200000F06DF90021CF2000F069F90021A1200B
:102B300000F065F90021C82000F061F90021A6200D
:102B400000F05DF90021A82000F059F900213F2094
:102B500000F055F90021D32000F051F9002108467A
:102B600000F04DF90021D52000F049F90021802026
:102B700000F045F90021D92000F041F90021F120B1
:102B800000F03DF90021DA2000F039F9002112208F
:102B900000F035F90021DB2000F031F90021402060
:102BA00000F02DF90021202000F029F90021022059
:102BB00000F025F900218D2000F021F900211420DA
:102BC00000F01DF90021A42000F019F90021A62031
:102BD00000F015F90021AF2000F011F9FFF70AFF0E
:102BE00008BD0000000C014010B50246012000E0C5
:102BF00050430B1EA1F10104E1B2F9D110BD000058
:102C000070B500241CE004F1B001C8B2002100F04E
:102C1000F6F80021084600F0F2F80021102000F03C
:102C2000EEF8002508E0084901EBC501085D012127
:102C300000F0E5F8681CC5B2802DF4DB601CC4B25E
:102C4000082CE0DB70BD00007E2E00202DE9FF4F38
:102C500081B080460E461C4600962046E31704EBE2
:102C60005373DB1021464FEAE47C04EB5C7C4FEAB3
:102C7000EC0CA4EBCC0CBCF1000F02D04FF0010C1B
:102C800001E04FF0000C6344224604EBD27C4FEA93
:102C90006C0C03FB0CF303F0FF0B03982038C7B256
:102CA000002547E00C2C07D107EB4700234901EB37
:102CB000800010F805A014E0102C05D1204800EB8E
:102CC000071010F805A00CE0182C07D107EBC7007F
:102CD0001C4901EB800010F805A002E005B0BDE83A
:102CE000F08F4FF000091FE00AF0800020B131465C
:102CF0004046FFF7C7FE03E031464046FFF792FE2D
:102D00004FEA4A604FEA106A701CC6B20098301A47
:102D1000A04205D1009E08F1010000F0FF0806E086
:102D200009F1010000F0FF09B9F1080FDCDB00BF79
:102D3000681CC5B25D45B5DB00BFCFE7288400083D
:102D40009C8800088C8E00082DE9F04F06468A46C4
:102D500091461F46099C00252CE0781B401EC1B2FD
:102D60000A20FFF741FFB9FBF0F00A21B0FBF1F2B6
:102D700001FB1208B8F1000F0CD1A34604EBDB7184
:102D8000491001FB0561C8B2234630225146FFF7C6
:102D90005DFF0DE0A34604EBDB71491001FB05610B
:102DA000C8B208F13001CAB223465146FFF74EFFC0
:102DB000681CC5B2BD42D0DBBDE8F08FF0B5064659
:102DC0000F4614461D4613E022782B4639463046FE
:102DD000FFF73CFF284605EBD07106EB6101CEB250
:102DE000C5F18000B04202DA0026B81CC7B2641CEC
:102DF0002078202802DB20787E28E5DDF0BD70B544
:102E000005460C46FEF764FF782000F063F9FEF7F4
:102E10008BFF1CB1402000F05DF902E0002000F0C3
:102E200059F9FEF781FF284600F054F9FEF77CFFC0
:102E3000FEF766FF70BD00002DE9FC4F05460E460B
:102E400017460024A046A146A246AB46009626207F
:102E5000019000BF4DE0C4EBC40000EB80002749A7
:102E6000085C3978884242D1C4EBC40000EB800092
:102E70002249084440787978884238D14FF0000AD6
:102E800032E0C4EBC40000EB80001C490844C01CC5
:102E900010F80A904FF0000813E009F0010020B18B
:102EA00031462846FFF7EEFD03E031462846FFF79E
:102EB000B9FD4FEA6909701CC6B208F1010000F0C3
:102EC000FF08B8F1080FE8DB681CC5B2A5EB0B00E2
:102ED000102804D15D4600980830C0B20090009ED2
:102EE0000AF1010000F0FF0ABAF1200FC9DB601CF3
:102EF000C4B201988442AEDBBDE8FC8FE89B0008B9
:102F000070B505460E46144616E020787F2809DD88
:102F1000224631462846FFF78FFFA41C05F110001A
:102F2000C5B209E02278102331462846FFF78EFE0D
:102F3000641C05F10800C5B220780028E5D170BDF9
:102F40007047000001460020034A506820F44040CA
:102F500008435060704700000010024029B1064A43
:102F600052690243044B5A6104E0034A52698243A6
:102F7000014B5A61704700000010024029B1064A17
:102F8000D2690243044BDA6104E0034AD269824306
:102F9000014BDA61704700000010024029B1064A77
:102FA00012690243044B1A6104E0034A1269824326
:102FB000014B1A61704700000010024029B1064A17
:102FC00092690243044B9A6104E0034A9269824386
:102FD000014B9A61704700000010024029B1064A77
:102FE000D2680243044BDA6004E0034AD2688243A9
:102FF000014BDA60704700000010024030B500213C
:103000000022002400232D4D6D6805F00C0121B134
:10301000042905D0082923D105E0294D056022E0C7
:10302000274D05601FE0254D6D6805F47012234D96
:103030006D6805F48034022505EB92421CB9214DE0
:10304000554305600BE01D4D6D6805F400351DB15D
:103050001C4D5543056002E0194D5543056002E0E3
:10306000174D056000BF00BF144D6D6805F0F001FD
:103070000909154D6B5C0568DD4045600F4D6D68B5
:1030800005F4E061090A104D6B5C4568DD40856020
:103090000A4D6D6805F46051C90A0B4D6B5C4568BB
:1030A000DD40C560054D6D6805F44041890B074D55
:1030B0006B5CC568B5FBF3F5056130BD00100240DF
:1030C00000127A0000093D00E4000020F400002016
:1030D0007047000070B50446002520E04FF4005111
:1030E0001048FEF7D0FD04F0800028B14FF4805165
:1030F0000C48FEF7CAFD04E04FF480510948FEF782
:10310000C2FD4FF400510748FEF7BFFD4FF40051D8
:103110000448FEF7B8FD6006040E681CC5B2082D11
:10312000DCDB70BD000C014010B500F001F810BDF3
:103130000CB50020019000903348006840F48030C6
:103140003149086000BF3048006800F4003000904A
:103150000198401C0190009818B90198B0F5A06F33
:10316000F1D12948006800F4003010B1012000902E
:1031700001E0002000900098012843D12348006816
:1031800040F01000214908600846006820F0030064
:1031900008600846006840F0020008601A4840686D
:1031A000194948600846406848600846406840F44D
:1031B000806048600846406820F47C1048600846FB
:1031C000406840F4E81048600846006840F08070AD
:1031D000086000BF0C48006800F000700028F9D0BB
:1031E0000948406820F003000749486008464068E5
:1031F00040F00200486000BF0348406800F00C0047
:103200000828F9D10CBD0000001002400020024047
:10321000042808D14FF0E021096941F004014FF082
:10322000E022116107E04FF0E021096921F004017B
:103230004FF0E022116170477047000010B513484D
:10324000006840F0010011490860084640681049D4
:1032500008400E494860084600680E4908400B497E
:1032600008600846006820F480200860084640682E
:1032700020F4FE0048604FF41F008860FFF754FF01
:103280004FF000600449086010BD000000100240CB
:103290000000FFF8FFFFF6FE08ED00E01FB54FF459
:1032A000A060FFF79DFB01210846FFF767FE4FF086
:1032B000804000F015F94FF4FA60ADF8080041F6CF
:1032C0001F40ADF804000020ADF80600ADF80A007C
:1032D00001A94FF0804000F011FA0121880700F0A9
:1032E000EFF801221146900700F0FFF9012188074D
:1032F00000F0E9F81C208DF8000002208DF8010094
:1033000001208DF802008DF803006846FFF730FBBE
:103310001FBD000010B50121880700F0D5F970B17C
:1033200007480068401C0649086008460068642891
:1033300001D9002008600121880700F0C1F810BD04
:10334000000000201FB54FF4A060FFF749FB0121EA
:103350000220FFF713FE184800F0C2F844F61F6081
:10336000ADF8080041F61F40ADF804000020ADF8AC
:103370000600ADF80A0001A90F4800F0BFF90121CD
:103380000D4800F09DF8012211460B4800F0ADF900
:103390000121094800F097F81D208DF80000012058
:1033A0008DF8010000208DF8020001208DF8030047
:1033B0006846FFF7DDFA1FBD000400401FB54FF45B
:1033C000A060FFF70DFB01210220FFF7D7FD184891
:1033D00000F086F84EF65F20ADF8080048F69F40F2
:1033E000ADF804000020ADF80600ADF80A0001A910
:1033F0000F4800F083F901210D4800F061F8012227
:1034000011460B4800F071F90121094800F05BF802
:103410001D208DF8000002208DF8010001208DF89C
:1034200002008DF803006846FFF7A2FA1FBD0000F6
:103430000004004010B50121174800F045F948B3D9
:103440001648007806281BD2DFE800F003060B0CB4
:103450000F12FFF70FF813E0FFF774FFFFF70AF8FA
:103460000EE000BFFFF706F800BFFFF703F807E024
:1034700000200B4908700021074800F024F800BF25
:1034800000BF06480078401C04490870012102482A
:1034900000F016F810BD000000040040B00000204D
:1034A000B100002010B50121044800F00DF918B159
:1034B0000121024800F004F810BD0000000800409F
:1034C000CA430282704721B1028842F001020280A1
:1034D00004E002884FF6FE731A4002807047000035
:1034E00010B504466848844208D10121C014FFF792
:1034F00075FD0021E014FFF771FDC4E0B4F1804FC9
:1035000008D101210846FFF749FD00210120FFF7FE
:1035100045FDB8E05D48844208D101210220FFF753
:103520003DFD00210220FFF739FDACE05848844200
:1035300008D101210420FFF731FD00210420FFF70D
:103540002DFDA0E05348844208D101210820FFF757
:1035500025FD00210820FFF721FD94E04E4884421C
:1035600008D101211020FFF719FD00211020FFF7DD
:1035700015FD88E04948844208D101212020FFF749
:103580000DFD00212020FFF709FD7CE04448844226
:1035900008D101214014FFF721FD00216014FFF73D
:1035A0001DFD70E03F48844209D10121C804FFF7A6
:1035B00015FD00214FF40020FFF710FD63E03A48AD
:1035C000844209D101210805FFF708FD00214FF4CD
:1035D0008010FFF703FD56E03448844209D10121F1
:1035E0004805FFF7FBFC00214FF40010FFF7F6FC45
:1035F00049E02F48844208D101214020FFF7CEFC4A
:1036000000214020FFF7CAFC3DE02A48844208D14F
:1036100001218020FFF7C2FC00218020FFF7BEFCC3
:1036200031E02548844208D101218015FFF7B6FC1E
:103630000021A015FFF7B2FC25E02048844209D103
:1036400001210804FFF7CAFC00214FF48030FFF786
:10365000C5FC18E01A48844209D101214804FFF74B
:10366000BDFC00214FF40030FFF7B8FC0BE015481B
:10367000844208D101218804FFF7B0FC00214FF4F7
:103680008020FFF7ABFC10BD002C0140000400407F
:1036900000080040000C00400010004000140040F2
:1036A00000340140004C01400050014000540140F2
:1036B00000180040001C0040002000400040014075
:1036C000004401400048014030B50246002000237C
:1036D0000024158A05EA0103958905EA010413B15E
:1036E0000CB1012000E0002030BD1AB183890B43EA
:1036F000838102E083898B438381704700220288A3
:103700001D4B98420ED01D4B98420BD0B0F1804F0C
:1037100008D01B4B984205D01A4B984202D01A4B46
:10372000984204D14FF68F731A404B881A43174BB7
:10373000984207D0164B984204D04FF6FF431A40E8
:10374000CB881A4302808B8883850B8803850A4BBC
:1037500098420BD0094B984208D00E4B984205D0A6
:103760000D4B984202D00D4B984201D10B7A038643
:103770000123838270470000002C01400034014087
:103780000004004000080040000C00400010004011
:103790000014004000400140004401400048014046
:1037A00070B505460C462246294613480068801C21
:1037B000FCF7DCFC2046E11704EB1161090A0E4A14
:1037C00012681170E11704EB11610912A4EB0121D9
:1037D000094A126851700848006800F59670064959
:1037E00008600846006805490968884202D1044813
:1037F0000149086070BD00007C00002084000020AA
:103800006018002010B540F22551134800F0D9F996
:1038100080B1114800F090FAC1B210480268006807
:10382000401C0E4B18600E48815440F225510A4846
:1038300000F047F940F22441074800F0C2F950B1C6
:10384000054800880448001D0088012005490870CB
:1038500000200249086010BD003801405C000020D3
:10386000FF0500206000002010B540F225513248CD
:1038700000F0A7F990B13148007878B92E48001DC2
:10388000008858B12C48001D00882D492D4A126827
:1038900088542C480068401C2A49086040F22441A2
:1038A000254800F08EF9002844D0244800780128EB
:1038B00040D121480088234908601F48001D008826
:1038C000086000212048FDF7E9FD1F48FDF798FE3C
:1038D000C0F580601B4908600846194902681B480A
:1038E0000068801CFCF742FC16480088000A174953
:1038F000096808701348007814490968487013482B
:10390000006800F596701149086008460068104983
:103910000968884202D10F480C4908600020094913
:1039200008604FF4806008496C3908670121064837
:10393000FDF7B4FD10BD000000440040B1000020C0
:1039400000070020680000206C000240700000208A
:1039500078000020000F002010B540F225514748A4
:1039600000F02FF988B1454800F0E6F9C1B24448AB
:10397000444A1268815443480068401C4149086029
:1039800040F225513D4800F09CF840F224413B486C
:1039900000F017F9002870D03848001D008837481B
:1039A000008800203749086001203749087000244A
:1039B00005E03348015D354802F0E0FA641C052C4F
:1039C000F7DB3348007838B92D480078A2284FD16A
:1039D00001202F4908704BE02E48007838B928485C
:1039E0000078A22844D101202A49087040E02A48E2
:1039F000007838B922480078A22839D10120264918
:103A0000087035E02548007838B91D480078A228AC
:103A10002ED10120214908702AE02148007838B9C8
:103A200017480078A22823D101201D4908701FE003
:103A30001C48007838B912480078A22818D1012013
:103A40001849087014E01848007838B90C48007814
:103A5000A2280DD101201449087009E0134800780C
:103A600030B907480078A22802D101200F49087018
:103A70004FF4FA710248FCF792FB10BD0048004079
:103A8000FE320020D0000020D40000200038014089
:103A9000D5000020D6000020D7000020D80000204C
:103AA000D9000020DA000020DB000020DC0000202C
:103AB00001F40072B2F5007F00D100BFCA4302805A
:103AC000704710B50022002340F66A14A14200D1CD
:103AD00000BF0A1201249440A3B2DC43048010BD4D
:103AE00021B1828942F40052828104E082894DF63C
:103AF000FF731A40828170471AB1838A0B43838215
:103B000002E0838A8B4383827047000010B504462D
:103B10002048844209D101218803FFF75FFA002180
:103B20004FF48040FFF75AFA32E01B48844209D133
:103B300001214804FFF732FA00214FF40030FFF76B
:103B40002DFA25E01548844209D101218804FFF7A8
:103B500025FA00214FF48020FFF720FA18E01048E2
:103B6000844209D10121C804FFF718FA00214FF45B
:103B70000020FFF713FA0BE00A48844208D1012124
:103B80000805FFF70BFA00214FF48010FFF706FA43
:103B900010BD0000003801400044004000480040D3
:103BA000004C00400050004002460020B1F5007F6C
:103BB00000D100BF13880B400BB1012000E00020B2
:103BC000704770B50246002400230025002040F60F
:103BD0006A16B14200D100BFC1F3421501F01F03C4
:103BE000012606FA03F3012D02D19689334006E03F
:103BF000022D02D1168A334001E0968A33400C121E
:103C0000012606FA04F41688344013B10CB10120E1
:103C100000E0002070BDF0B503460024002600251A
:103C2000002040F66A17B94200D100BF1846C1F320
:103C3000421401F01F06012707FA06F5012C01D1F5
:103C40000C3004E0022C01D1103000E014301AB125
:103C500007682F43076002E00768AF430760F0BDC5
:103C60002DE9F04786B005460E460024A24600BF67
:103C7000A1460027B08900B100BF2F462C8A4CF620
:103C8000FF700440F08804432C82AC894EF6F31098
:103C90000440B08831890843718908430443AC81EA
:103CA000AC8A4FF6FF400440B0890443AC8201A8BF
:103CB000FFF7A4F91F48874202D1DDF810A001E008
:103CC000DDF80CA0A88900F4004040B10AEBCA005E
:103CD00000EB0A1031684900B0FBF1F807E00AEB8D
:103CE000CA0000EB0A1031688900B0FBF1F86420CB
:103CF000B8FBF0F004012009642101FB1089A889B8
:103D000000F4004040B1322000EBC900B0FBF1F0FC
:103D100000F00700044308E0322000EB09106421A2
:103D2000B0FBF1F000F00F0004432C8106B0BDE8B9
:103D3000F08700000038014001468888C0F3080081
:103D40007047C1F3080282807047704710B586B093
:103D500004464FF4A060FEF743FE01218803FFF7FD
:103D60002DF901210420FFF729F94FF40070ADF877
:103D7000140003208DF8160018208DF8170005A9EF
:103D80002148FDF7E3FE4FF48060ADF814000420F5
:103D90008DF8170005A91C48FDF7D8FE01940020F6
:103DA000ADF80800ADF80A00ADF80C00ADF8100051
:103DB0000C20ADF80E0001A91448FFF751FF202197
:103DC0001248FFF775FE012240F225510F48FFF718
:103DD00022FF012240F224410C48FFF71CFF25205E
:103DE0008DF8000000208DF801008DF80200012000
:103DF0008DF803006846FEF7BBFD01210348FFF77D
:103E00006FFE06B010BD0000000801400038014000
:103E100000B58DB001210846FFF7A0F82C480290AC
:103E20002C480390002004904FF4806005900020FF
:103E30000690802007900020089009900A904FF487
:103E400000500B9000200C9002A92348FDF7FBFBCB
:103E500001212148FDF722FB1D4802901F48006800
:103E6000801C0390102004904FF496700590002061
:103E70000690802007900020089009900A904FF447
:103E800080500B9000200C9002A913481430FDF7CD
:103E9000DAFB002110481430FDF700FB4FF00070F2
:103EA000FDF7EEFA012202210B481430FDF7C2FBA8
:103EB00011208DF8040000208DF805008DF8060013
:103EC00001208DF8070001A8FEF752FD0DB000BDDE
:103ED00004440040000700206C00024080000020E5
:103EE00010B586B004464FF4A060FEF779FD2E4869
:103EF000FFF70CFE01214804FFF740F801210420E0
:103F0000FFF75CF82848FFF701FE0420ADF8140025
:103F100003208DF8160018208DF8170005A92348F6
:103F2000FDF714FE0820ADF8140004208DF81700EA
:103F300005A91E48FDF70AFE01940020ADF808000F
:103F4000ADF80A00ADF80C00ADF810000C20ADF88B
:103F50000E0001A91448FFF783FE012240F224411C
:103F60001148FFF758FE26208DF8000000208DF83C
:103F700001008DF8020001208DF803006846FEF76D
:103F8000F7FC012240210848FFF7B6FD01228021FD
:103F90000548FFF7B1FDFFF73BFF01210248FFF79E
:103FA0009FFD06B010BD0000004400400008014025
:103FB00010B586B004464FF4A060FEF711FD2A4804
:103FC000FFF7A4FD01214804FEF7D8FF01210420DA
:103FD000FEF7F4FF2448FFF799FD0420ADF8140024
:103FE00003208DF8160018208DF8170005A91F482A
:103FF000FDF7ACFD0820ADF8140004208DF8170083
:1040000005A91A48FDF7A2FD01940020ADF80800AB
:10401000ADF80A00ADF80C00ADF810000C20ADF8BA
:104020000E0001A91048FFF71BFE20210E48FFF7E4
:104030003FFD012240F225510B48FFF7ECFD262001
:104040008DF8000000208DF801008DF8020001209D
:104050008DF803006846FEF78BFC01210248FFF74C
:104060003FFD06B010BD00000044004000080140C4
:1040700010B576A000F0DCFC78A200210846FEF71F
:104080003FFFFEF7BDFD322000F0DAFB20B176A045
:1040900000F0CEFC012010BD79A000F0C9FC7BA28D
:1040A00000210846FEF72CFFFEF7AAFD7AA000F0DB
:1040B000BFFC32217DA000F01FFC20B17EA000F0EB
:1040C000B7FC0220E7E783A000F0B2FC8648007846
:1040D000002826D185A000F0ABFC322188A000F09A
:1040E0000BFC20B18AA000F0A3FC0320D3E790A032
:1040F00000F09EFC93A200210846FEF701FFFEF7A8
:104100007FFD94A000F094FC1E2000F029FB20B15C
:1041100095A000F08DFC0420BDE79AA000F088FC7B
:1041200054E040219C48FDF79CFD00283FD19BA016
:1041300000F07EFC32219EA000F0DEFB20B1A0A0AA
:1041400000F076FC0320A6E7A5A000F071FCA9A072
:1041500000F06EFC3221ADA000F0CEFB20B1AFA08C
:1041600000F066FC042096E7B4A000F061FCB9A062
:1041700000F05EFC3C2000F0F9FB20B1BBA000F099
:1041800057FC052087E7C0A000F052FCC2A000F059
:104190004FFC3221C6A000F0AFFB20B1C8A000F058
:1041A00047FC062077E7CEA000F042FC0EE0D2A04C
:1041B00000F03EFC1E2000F00FFC20B16AA000F0D1
:1041C00037FC072067E76FA000F032FCCFA2002188
:1041D0000846FEF795FEFEF713FDD0A000F028FC80
:1041E0003221D2A000F088FB20B1D4A000F020FC46
:1041F000082050E7D8A000F01BFCDBA000F018FC62
:104200003221DEA000F078FB20B1DFA000F010FC2E
:10421000092040E7E4A000F00BFCE8A200210846DA
:10422000FEF76EFEFEF7ECFCE7A000F001FC642058
:1042300000F0ECF920B1E9A000F0FAFB0A202AE72F
:10424000EDA000F0F5FB002025E70000D7BCB1B8D9
:10425000B8B4CEBBC4A3BFE90D0A00007769666994
:104260005F727374696E6700B8B4CEBBCAA7B0DC66
:10427000A3ACD7BCB1B8D6D8C6F40D0A0000000074
:10428000B8B4CEBBB3C9B9A60D0A00007769666998
:104290005F737461696E6700D7BCB1B8C9E8D6C3F3
:1042A000535441C4A3CABD0D0A00000041542B431E
:1042B000574D4F44453D3100C9E8D6C3535441C41E
:1042C000A3CABDCAA7B0DCA3ACD7BCB1B8D6D8C608
:1042D000F40D0A00C9E8D6C3535441C4A3CABDB300
:1042E000C9B9A60D0A000000B4000020D7BCB1B8BF
:1042F000C8A1CFFBD7D4B6AFC1ACBDD30D0A000067
:1043000041542B43574155544F434F4E4E3D30007F
:10431000C8A1CFFBD7D4B6AFC1ACBDD3CAA7B0DC60
:10432000A3ACD7BCB1B8D6D8C6F40D0A00000000C3
:10433000C8A1CFFBD7D4B6AFC1ACBDD3B3C9B9A662
:104340000D0A0000776966695F4A6F696E696E677A
:1043500000000000D7BCB1B8C1ACBDD3C2B7D3C94F
:10436000C6F70D0A00000000C1ACBDD3C2B7D3C967
:10437000C6F7CAA7B0DCA3ACD7BCB1B8D6D8C6F4D0
:104380000D0A0000C1ACBDD3C2B7D3C9C6F7B3C9CB
:10439000B9A60D0A00000000000C0140D7BCB1B85E
:1043A000C9E8D6C3D7D4B6AFC1ACBDD30D0A00009F
:1043B00041542B43574155544F434F4E4E3D3100CE
:1043C000C9E8D6C3D7D4B6AFC1ACBDD3CAA7B0DC99
:1043D000A3ACD7BCB1B8D6D8C6F40D0A0000000013
:1043E000C9E8D6C3D7D4B6AFC1ACBDD3B3C9B9A69B
:1043F0000D0A0000D7BCB1B8BFAAC6F4536D6172F4
:1044000074636F6E6669670D0A00000041542B43A8
:10441000575354415254534D41525400BFAAC6F40D
:10442000536D617274636F6E666967CAA7B0DCA36F
:10443000ACD7BCB1B8D6D8C6F40D0A00BFAAC6F432
:10444000536D617274636F6E666967B3C9B9A60D07
:104450000A000000C7EBCAB9D3C3415050C8EDBC35
:10446000FEB4ABCAE4C3DCC2EB0D0A00B4ABCAE4D1
:10447000C3DCC2EBCAA7B0DCA3ACD7BCB1B8D6D8FA
:10448000C6F40D0A00000000B4ABCAE4C3DCC2EB02
:10449000B3C9B9A60D0A0000D7BCB1B8B9D8B1D517
:1044A000536D617274636F6E6669670D0A00000078
:1044B00041542B435753544F50534D4152540000D5
:1044C000B9D8B1D5536D617274636F6E666967CA8E
:1044D000A7B0DCA3ACD7BCB1B8D6D8C6F40D0A00DF
:1044E000B9D8B1D5536D617274636F6E666967B385
:1044F000C9B9A60D0A000000B5C8B4FDC1ACBDD352
:10450000C2B7D3C9C6F70D0A000000007769666913
:104510005F6D6F6465696E6700000000D7BCB1B85D
:10452000C9E8D6C3CDB8B4AB0D0A000041542B4343
:1045300049504D4F44453D3100000000C9E8D6C305
:10454000CDB8B4ABCAA7B0DCA3ACD7BCB1B8D6D891
:10455000C6F40D0A00000000C9E8D6C3CDB8B4AB5C
:10456000B3C9B9A60D0A0000D7BCB1B8B9D8B1D546
:10457000B6E0C2B7C1ACBDD30D0A000041542B4315
:1045800049504D55583D3000B9D8B1D5B6E0C2B705
:10459000C1ACBDD3CAA7B0DCA3ACD7BCB1B8D6D828
:1045A000C6F40D0A00000000B9D8B1D5B6E0C2B714
:1045B000C1ACBDD3B3C9B9A60D0A0000776966695D
:1045C0005F536572696E6700D7BCB1B8C1ACBDD32B
:1045D000B7FECEF1C6F70D0A00000000C1ACBDD396
:1045E000B7FECEF1C6F7CAA7B0DCA3ACD7BCB1B852
:1045F000D6D8C6F40D0A0000C1ACBDD3B7FECEF1CB
:10460000C6F7B3C9B9A60D0A0000000010B50446EC
:1046100000202E4908604FF480612D48FBF7BFFD54
:104620002C482D4902682DA001F0ACFE1AE0642050
:10463000FDF78EF830A12648FBF7BCFD00B115E070
:104640002FA12348FBF7B6FD08B1012010BD2EA114
:104650001F48FBF7AFFD08B10220F7E721462FA066
:1046600000F0E6F9201EA4F10104E0D100BF2CA067
:1046700000F0DEF9002C01DC0320E7E729A000F0C0
:10468000D7F90020114908604FF480611048FBF70A
:1046900086FD2CA001F076FE0CE06420FDF758F8B2
:1046A0002CA10B48FBF786FD00B107E021461BA0BB
:1046B00000F0BEF9201EA4F10104EED100BF002CD1
:1046C00001DC0420C2E70020C0E7000068000020F1
:1046D00000070020A0000020A02C002041542B4304
:1046E000495053544152543D22544350222C2225C8
:1046F00073222C25640D0A00434F4E4E454354004F
:10470000434C4F5345440000414C524541445920CD
:10471000434F4E4E4543544544000000256420005D
:104720000D0A0000C1ACBDD3B7FECEF1C6F7B3C9C8
:10473000B9A6A3ACD7BCB1B8BDF8C8EBCDB8B4AB83
:104740000D0A000041542B43495053454E440D0A75
:10475000000000000D0A4F4B0D0A0D0A3E0000003C
:1047600010B504460020234908604FF480612248B8
:10477000FBF715FD21A224A124A001F003FE1FA236
:1047800021A122A000F054F925E00A2094FBF0F1C9
:1047900000FB114088B90020164908604FF4806181
:1047A0001548FBF7FCFC15A217A118A001F0EAFDC3
:1047B00012A215A115A000F03BF94FF47A70FCF796
:1047C000C7FF18A10C48FBF7F5FC00B107E0214634
:1047D00019A000F02DF9201EA4F10104D5D100BFCD
:1047E00016A000F025F9002C01DC012010BD0020EE
:1047F000FCE700006800002000070020313233345D
:104800003536373839302E004100000041542B43F3
:10481000574A41503D222573222C222573220D0A2E
:10482000000000005749464920474F542049500D89
:104830000A0D0A4F4B000000256420000D0A0000FD
:1048400010B50446002210211648FDF720FA4FF457
:10485000FA70FCF77DFF012210211248FDF717FACC
:1048600011E06420FCF774FF0FA11148FBF7A2FCD4
:1048700020B910A10E48FBF79DFC00B107E02146CE
:104880000EA000F0D5F8201EA4F10104E9D100BF6C
:104890000BA000F0CDF8002C01DC012010BD0020A1
:1048A000FCE7000000080140696E76616C696400F5
:1048B0000007002072656164790000002564200013
:1048C0000D0A000008B501210420FEF777FB102037
:1048D000ADF8000003208DF8020010208DF80300D1
:1048E00069460448FDF732F9012210210148FDF71D
:1048F000CEF908BD0008014070B505460C46002001
:10490000134908604FF480611248FBF748FC2946C0
:1049100011A001F037FD0CE06420FCF719FF10A195
:104920000C48FBF747FC00B107E021460DA000F062
:104930007FF8201EA4F10104EED100BF0AA000F010
:1049400077F8002C01DC012070BD0020FCE700009E
:10495000680000200007002025730D0A00000000F9
:104960004F4B0000256420000D0A000010B50446DE
:104970000020124908604FF480611148FBF70FFCDA
:104980000DE04FF47A70FCF7E3FE0EA10C48FBF744
:1049900011FC00B107E021460DA000F049F8201EEF
:1049A000A4F10104EDD100BF0AA000F041F8002CF1
:1049B00001DC012010BD0020FCE7000068000020A1
:1049C00000070020636F6E6E65637465640000000D
:1049D000256420000D0A000010B504460DE04FF4D8
:1049E0007A70FCF7B5FE0CA10E48FBF7E3FB00B1B3
:1049F00007E021460CA000F01BF8201EA4F10104E2
:104A0000EDD100BF09A000F013F8002C01DC01205B
:104A100010BD0020FCE700005749464920474F548D
:104A20002049500000070020256420000D0A0000E6
:104A30000FB4054B10B503A9044A029800F004F91D
:104A400010BC5DF814FB000079590008F800002044
:104A50000FB4084B10B504A902AA039800F0F4F8AB
:104A6000044602A9002000F072FC204610BC5DF84C
:104A700014FB00004F53000837B514460846064B98
:104A80006A46214600F0E0F804466946002000F03E
:104A90005EFC20463EBD00004F53000800487047B2
:104AA000FC00002002E008C8121F08C1002AFAD149
:104AB00070477047002001E001C1121F002AFBD19E
:104AC000704700002DE9FF5F82B00021DDE904306E
:104AD000020DDDF840B0034318D044F61050A2F2A6
:104AE000FF3242431514119801281FD0A5EB0B008B
:104AF000401C5FEA000A4FF000064E4FDFF8389185
:104B0000B046504615D5CAF1000413E011980124AF
:104B10004AA3012801D16FEA0B010298119AC0E95A
:104B20000031C0E9024206B0BDE8F09FCBF10000C1
:104B3000DFE704460021404A491842EB0450CDE922
:104B4000001012E0E00707D032463B464046494697
:104B5000FBF78AFC8046894632463B46104619469A
:104B6000FBF782FC06460F466410002CEAD1DDE913
:104B70000401DDE90023BAF1000F06DAFBF774FC4B
:104B800042464B46FBF770FC05E0FBF7DFFC424674
:104B90004B46FBF7DBFC04460E460022284BFBF796
:104BA0005DFD03D84FF0FF30014607E00022254BA2
:104BB00020463146FBF7B1FBFBF737FD102409E037
:104BC000002C0ADB0A220023FBF73EFB039B30325A
:104BD0001A55641E50EA0102F2D1641C039AC4F112
:104BE00011031444119A012A03D0012208430DD164
:104BF0000AE0084304D000204FF0110B119072E737
:104C0000A3EB0B056D1E0DE05B4504DD4FF00002CC
:104C100005F1010504E003DA4FF00002A5F10105FA
:104C2000002AECD002981199C0E90231C0E9004590
:104C300079E70000000014400000F03F3000000061
:104C40000000F0430000E03F2DE9FF4F95B09A4689
:104C5000884606460025EEE1252877D10024274620
:104C6000F94A0121039400E0044316F8013F203B78
:104C700001FA03F01042F7D130782A2811D06FF0F2
:104C80002F033078A0F13002092A16D8039A44F095
:104C9000020402EB820203EB42021044761C0390F2
:104CA000EFE758F8042B0392002A03DA504244F449
:104CB0000054039044F00204761C30782E2816D15C
:104CC00016F8010F44F004042A280DD06FF02F02CB
:104CD0003078A0F13003092B09D807EB870302EBEA
:104CE0004303C718761CF3E758F8047B761C30782A
:104CF0006C280FD006DC4C2817D068280DD06A2805
:104D000014D104E0742810D07A280FD10DE044F4B7
:104D100000140AE044F4801401E044F44014727872
:104D2000824202D104F58014761C761C3078662805
:104D30000BD013DC582877D009DC002875D0452823
:104D4000F6D04628F4D047281AD193E118E063281A
:104D500035D0642879D0652812D18BE1702873D0C2
:104D600008DC6728F1D069286FD06E280DD06F2835
:104D700006D1ACE073282CD0752874D0782853D095
:104D80005246179990476D1C54E1C4F30250022813
:104D900009D003280DD0D8F8001004280DD00D60DC
:104DA00008F1040846E1D8F80010EA17C1E90052FA
:104DB000F6E7D8F800100D80F2E70D70F0E718F86C
:104DC000041B8DF8001000208DF80100EB46012037
:104DD00003E058F804BB4FF0FF3061074FF00001CB
:104DE00002D40DE009F101018946B9420FDA81458B
:104DF000F8DB1BF809100029F4D108E009F10101E2
:104E000089468142FADB1BF809100029F6D1039884
:104E10005346A0EB090721463846179A00F080FA5E
:104E2000284400EB090507E044E008E10DE01BF829
:104E3000010B524617999047B9F10109F7D2534631
:104E400021463846179AF2E039E00A21C4F30252AB
:104E50004FF0000B0091022A06D058F8040BC1173E
:104E6000032A09D00AE023E008F1070020F0070236
:104E7000F2E80201904605E000B2C117042A01D110
:104E800040B2C117002906DA0A460021404261EB10
:104E900002012D2202E0220504D52B228DF80420E8
:104EA000012203E0E20701D02022F7E7914657E014
:104EB0000A2100E010214FF0000B00910BE01021BF
:104EC0004FF0000B44F004040827009103E0082091
:104ED0004FF0000B0090C4F30252022A05D058F89C
:104EE000040B0021032A08D008E008F1070020F095
:104EF0000702F2E80201904603E080B2042A00D1E2
:104F0000C0B24FF0000922072AD53278702A07D0A4
:104F1000DDF800C08CF0100C5CEA0B0C05D00EE044
:104F200040228DF80420012208E050EA010306D057
:104F300030238DF804308DF8052002229146009B25
:104F400083F0080353EA0B030AD150EA010201D1AE
:104F5000620705D530228DF804204FF001097F1E2D
:104F60003278582A04D039A20C920CAA02920BE093
:104F70003BA2F9E75B46009AFBF766F90C9B9B5C4A
:104F8000029A521E0292137050EA0102F2D1029864
:104F900004A9081A00F1200B600702D524F480341C
:104FA00000E001275F4502DDA7EB0B0000E00020D9
:104FB00000EB0B01009003984944401A0390E00372
:104FC00006D453462146179A039800F0A9F90544E0
:104FD000002706E001A85246C05D179990476D1C56
:104FE0007F1C4F45F6DBE0030CD553462146179A4C
:104FF000039800F095F9054404E0302052461799D3
:1050000090476D1C0099481E00900029F5DC08E0CF
:105010000298029952460078491C029117999047CC
:105020006D1CBBF10001ABF1010BF1DC5BE100F0A9
:1050300065F90544761C307800287FF40DAE19B070
:105040002846BDE8F08F00000928010030313233D6
:1050500034353637383961626364656600000000B4
:10506000303132333435363738394142434445469E
:1050700000000000600700D4062708F1070020F0B8
:105080000700F0E80223804603F0004C5FEA0C00C2
:1050900001D097A009E0200501D596A005E0E00722
:1050A00001D095A001E0AFF24C001390307823F0CE
:1050B000004365280CD006DC452809D046281DD0C1
:1050C00047287FD13BE0662818D067287AD136E0A0
:1050D0000021112F01DB112000E0781CCDE9000137
:1050E00004A90CA8FFF7EEFCDDE90D010C9A4FF0C6
:1050F000000B07F10109109200914EE04FF00040C3
:105100000097CDE9011004A90CA8FFF7DBFCDDE94D
:105110000D020C9B0F994FF0000B914610930092DB
:1051200011B9791C00EB0109B7EB090003D4C0F1F8
:10513000FF3B07F10109A9EB0700019042E0012FB5
:1051400000DA01270021112F01DD112000E038468F
:10515000CDE9000104A90CA8FFF7B4FCDDE90D01BD
:105160000C9A00914FF0000BB946109221070FD412
:10517000009A4A4503DA914601E0A9F10109B9F123
:10518000010F05DD109AA9F10101515C3029F4D01D
:10519000B84202DA10F1040F03DA0121CDE901105F
:1051A00010E0002803DC8344A9EB000102E0411C6D
:1051B000494500DD8946A0EB0B00401C01904FF0F3
:1051C00000400290200705D40198484502DB4FF0CB
:1051D000FF30019000208DF84B0002980DF14B0735
:1051E000B0F1004F25D002200C902B200D9002989A
:1051F00000280CDA404202902D200D9007E00A2191
:105200000298FBF70BF83031029007F8011D0C995A
:10521000481E0C900029F2DC02980028EFD1791E7C
:105220000D980870307800F0200040F0450007F835
:10523000020D11A8C01BC01D02901398007800B188
:10524000012000EB0901019801EBE0710298014493
:105250000398401A401E0390E00306D453462146AB
:10526000179A039800F05CF805441398007818B179
:105270005246179990476D1CE00323D553462146AB
:10528000179A039800F04CF805441BE0BBF1000F9F
:1052900007DB0098584504DD1098179910F80B00AB
:1052A00001E0179930205246904701980BF1010B0D
:1052B000401E05F10105019004D12E205246179998
:1052C00090476D1CB9F10001A9F10109DEDC05E090
:1052D00017F8010B5246179990476D1C0299481E0A
:1052E00002900029F4DC53462146179A03989EE663
:1052F0002D0000002B000000200000002DE9F041EF
:10530000044600251E461746880404D405E03946A5
:105310002020B0476D1C641EF9D52846BDE8F081F9
:105320002DE9F041044600251E469046C80301D5EC
:10533000302700E02027880404D505E041463846A0
:10534000B0476D1C641EF9D52846BDE8F0810A6897
:10535000531C0B601070704710B5C2B00A4800783B
:1053600000900A4803780A4802780A4902A8FFF721
:105370006FFB02A8FAF730FF0446224602A906A0F6
:10538000FDF786F842B010BD550000205200002005
:105390005100002080A300082F7379732F613167BB
:1053A000754B7932477678772F414243442F7468A2
:1053B000696E672F6576656E742F70726F70657297
:1053C00074792F706F73740010B5FEB05F48007869
:1053D00000287DD05E4800785E49097888422CDD3F
:1053E0005D48006808B9012000E000205A490860C3
:1053F00001205A4908701E20FCF7AAF95748007886
:1054000057490978884241D00420564908705348CA
:1054100000785349087054480078002836D0534922
:1054200001A8FFF715FB01A8FAF7D6FE04462246AD
:1054300001A94FA0FDF72CF828E045480078454920
:105440000978884222DA0120434908600020434954
:1054500008700846007842490978884216D0002032
:10546000404908703D4800783D4908703E48007842
:1054700060B14B4901A8FFF7EBFA01A8FAF7ACFEBF
:105480000446224601A93AA0FDF702F845480078F3
:105490004549097888422EDD2F48006808B9012067
:1054A00000E000202C4908601E20FCF751F9012083
:1054B0003E49087004202B4908703C4800783C495C
:1054C0000978884240D0394800783949087000E0AE
:1054D00010E025480078002836D0364901A8FFF7AB
:1054E000B7FA01A8FAF778FE0446224601A920A0DF
:1054F000FCF7CEFF28E02B4800782B49097888423A
:1055000022DA012014490860002028490870084662
:10551000007827490978884216D000201149087080
:1055200022480078224908700F48007860B122496B
:1055300001A8FFF78DFA01A8FAF74EFE04462246AD
:1055400001A90BA0FCF7A4FF7EB010BD5500002000
:105550004500002051000020A48121425600002077
:1055600057000020DD000020B300002018A3000831
:105570002F7379732F613167754B7932477678775E
:105580002F414243442F7468696E672F6576656EBC
:10559000742F70726F70657274792F706F737400EE
:1055A00048A20008460000205200002058000020B9
:1055B00059000020B0A20008E0A1000810B5202189
:1055C0003948FCF74EFBA8B138A0FFF731FA0120AB
:1055D00037490870084600783649097888420FD064
:1055E000334800783349087033480078401C32490A
:1055F000087005E031A0FFF71BFA00202D49087064
:105600000A210020FCF748FB2D4908800846008845
:10561000B0F57A6F02DD4FF47A6008802848008880
:10562000282190FBF1F0C0F16400264908700A219E
:105630000120FCF731FB24490880098801EB411166
:1056400001EB4100C11700EB1151C1F307311F4AB3
:10565000117010460078632801DB632001E01B48CD
:1056600000781A4908700A210220FCF715FB184936
:105670000880098801EB411101EB4100C11700EBE3
:105680001151C1F30731134A117010460078632895
:1056900001DB632001E00F4800780E4908700E49D5
:1056A0000E48FBF78AFE10BD0008014031000000E3
:1056B0005400002053000020500000203000000063
:1056C00048000020440000204A000020450000203F
:1056D0004C000020460000204E0000204F0000201B
:1056E00008B56848007868490978884205D0654857
:1056F000007865490870FDF77DF962480078002858
:1057000038D162A200210846FDF7FAFB10200223DF
:1057100000906048027800212820FDF715FB5EA26A
:1057200010210020FDF7ECFB1020022300905C48C4
:10573000027810212820FDF707FB5AA22021002023
:10574000FDF7DEFB1020022300905848027820214C
:105750002820FDF7F9FA56A230210020FDF7D0FBF2
:105760001020022300905448027830212820FDF7B1
:10577000EBFA85E051A200210846FDF7C1FB10209D
:10578000022300904F48027800212820FDF7DCFA20
:105790004DA210210020FDF7B3FB10200223009042
:1057A0004B48027810212820FDF7CEFA49A220218B
:1057B0000020FDF7A5FB4948007828B148A2202128
:1057C0003020FDF79DFB04E046A220213020FDF7AC
:1057D00097FB45A230210020FDF792FB8021434832
:1057E000FCF748FA28B93EA230211020FDF788FBCB
:1057F00004E03CA230211020FDF782FB3CA23021C6
:105800002020FDF77DFB4FF480713848FCF732FA19
:1058100028B933A230210846FDF772FB04E031A21B
:1058200030210846FDF76CFB32A230214020FDF705
:1058300067FB4FF480512D48FCF71CFA28B928A2C9
:1058400030215020FDF75CFB04E026A230215020DF
:10585000FDF756FB28A230216020FDF751FB4FF4E5
:1058600000612248FCF706FA28B91DA230217020F9
:10587000FDF746FB04E01BA230217020FDF740FB42
:1058800008BD0000DF000020E2000020CEC2B6C844
:10589000000000004E000020CAAAB6C800000000A8
:1058A0004F000020B9E2D5D50000000044000020E0
:1058B0004320204F0000000046000020D1CCCEED58
:1058C0000000000045000020C8CBCAFD0000000019
:1058D00050000020B4B0C1B100000000E30000207F
:1058E0006F6E00006F660000313A00000008014052
:1058F000323A0000333A0000343A000070B5CCB0C0
:1059000004460D464FF4967101A8FAF748FC2B4661
:105910002246074901A8FFF79BF801A8FAF75CFCAB
:105920000646324601A903A0FCF7B2FD4CB070BD9B
:1059300028A600082F7379732F613167754B793270
:10594000477678772F414243442F7468696E672FFA
:105950006576656E742F70726F70657274792F70D2
:105960006F73740000B5024601E0FBF7E4FE101E01
:10597000A2F10102F9D100BD70B504460D46E1B2B5
:105980000548FEF7DEF900BF80210348FEF70CF959
:105990000028F9D0204670BD0038014010B5ADF5A3
:1059A0001C7D1148007811490978114A1278114B71
:1059B0001B78CDE90132CDE903100F480078009043
:1059C0000E4803780E4802780E4906A8FFF740F803
:1059D00006A8FAF701FC0446224606A90AA0FCF72D
:1059E00057FD0DF51C7D10BD520000205100002018
:1059F0004500002046000020440000204F00002009
:105A00004E00002000A400082F7379732F613167C6
:105A1000754B7932477678772F414243442F74682B
:105A2000696E672F6576656E742F70726F70657220
:105A300074792F706F73740070B5CCB004460D4646
:105A40004FF4967101A8FAF7AAFB29460C48FCF717
:105A500011F928B122460B4901A8FEF7F9FF04E02D
:105A60002246094901A8FEF7F3FF01A8FAF7B4FBA3
:105A70000646324601A905A0FCF70AFD4CB070BDF0
:105A8000000801403CA50008E0A400082F737973CA
:105A90002F613167754B7932477678772F414243D2
:105AA000442F7468696E672F6576656E742F707207
:105AB0006F70657274792F706F737400FBF742FE1C
:105AC0004FF41650FEF742F94FF4165000F088FCE0
:105AD000FCF7A2F9FCF736F9FAF7B2FFFCF7F0FF92
